:020000040800F2
:10000000780600208901000891010008930100088A
:100010009501000897010008990100080000000000
:100020000000000000000000000000009B0100082C
:100030009D010008000000009F0100082D0F00082E
:10004000A3010008A3010008A3010008A301000800
:10005000A3010008A3010008A3010008A3010008F0
:10006000A301000885020008A3010008A3010008FD
:10007000A3010008A3010008A3010008A3010008D0
:10008000A3010008A3010008A3010008A3010008C0
:10009000A3010008A3010008A3010008A3010008B0
:1000A000A3010008A3010008A3010008A3010008A0
:1000B000A3010008A3010008990F0008A30100088C
:1000C000A3010008A3010008A3010008A301000880
:1000D000A3010008A3010008A3010008A301000870
:1000E000A3010008A3010008A301000800F002F822
:1000F00000F03AF80AA090E8000C82448344AAF188
:100100000107DA4501D100F02FF8AFF2090EBAE885
:100110000F0013F0010F18BFFB1A43F0010318473B
:10012000C80F0000E80F0000103A24BF78C878C15B
:10013000FAD8520724BF30C830C144BF04680C60ED
:10014000704700000023002400250026103A28BF35
:1001500078C1FBD8520728BF30C148BF0B60704739
:100160001FB51FBD10B510BD00F031F81146FFF7E7
:10017000F7FF00F021FF00F04FF803B4FFF7F2FFA4
:1001800003BC00F057F800000948804709480047C1
:10019000FEE7FEE7FEE7FEE7FEE7FEE7FEE7FEE737
:1001A000FEE7FEE704480549054A064B7047000094
:1001B000310F0008ED0000087800002078060020CC
:1001C000780200207802002070477047704775461B
:1001D00000F02CF8AE4605006946534620F00700B3
:1001E000854618B020B5FFF7DDFFBDE820404FF091
:1001F00000064FF000074FF000084FF0000BAC4630
:10020000ACE8C009ACE8C009ACE8C009ACE8C0097A
:1002100021F007018D46704710B50446AFF300800A
:100220002046BDE81040FFF7A8BF00000048704717
:100230001000002001491820ABBEFEE72600020096
:100240007047000083B0029000200190FFE7019802
:100250000299884213D2FFE700200090FFE7009840
:1002600040F2FA41884205D8FFE7FFE700980130E5
:100270000090F4E7FFE7019801300190E7E703B051
:100280007047000080B590B0092000F0AFFC03205B
:1002900000F0C0F800200E908DF83F008DF83E0071
:1002A0008DF83D008DF83C0006210DF13F0200F075
:1002B00043FA0E9805210DF13E0200F03DFA0E982A
:1002C00004210DF13D0200F037FA9DF83D0008B120
:1002D000FFE793E09DF83F0000284CD0FFE70621A0
:1002E000099100220D92104600F084FB0D9A042122
:1002F0000C91104600F07EFB0D9805210B91012218
:100300000A9200F077FBAA200890FFF79BFF09995B
:100310000D9A104600F06EFB0B990D9A104600F0F6
:1003200069FB0A9A0C990D9800F064FB0898FFF796
:1003300089FF09990D9A104600F05CFB0C990D9A03
:10034000104600F057FB0A9A0B990D9800F052FBEB
:100350000898FFF777FF09990A9A0D9800F04AFB71
:100360000B990D9A104600F045FB0C990D9A10461A
:1003700000F040FB41E09DF83E00E8B3FFE70621B6
:10038000029100220692104600F034FB069A0421E6
:100390000391104600F02EFB0698052104910122DE
:1003A000059200F027FBAA200790FFF74BFF029968
:1003B000069A104600F01EFB069A0499104600F0BB
:1003C00019FB0399059A069800F014FB0798FFF7AC
:1003D00039FF0299069A104600F00CFB0399069A21
:1003E000104600F007FB0499059A069800F002FBFE
:1003F0000798FFF727FFFFE7FFE7FFE709200190D6
:1004000000F0AEFB019800F03BFC032000F024F864
:1004100010B080BD81B08DF8030000208DF802007F
:100420009DF803000F280FDCFFE79DF80310012063
:1004300000FA01F340F20042C4F20102116899434C
:1004400011608DF8020003E000208DF80200FFE744
:100450009DF8020001B0704781B08DF803000020C4
:100460008DF802009DF803000F280FDCFFE79DF8D0
:100470000310012000FA01F340F20042C4F201022D
:100480001168194311608DF8020003E000208DF817
:100490000200FFE79DF8020001B0704780B582B00E
:1004A0008DF806008DF805109DF806000F2805DC74
:1004B000FFE79DF80500032804DBFFE700208DF827
:1004C000070037E000208DF804009DF8050020B9F2
:1004D000FFE700208DF8040017E09DF805000128D3
:1004E00004D1FFE701208DF804000DE09DF8050020
:1004F000022804D1FFE702208DF8040003E0002069
:100500008DF8070016E0FFE7FFE79DF806009DF86D
:10051000041000F0C5F88DF803009DF803000128D1
:1005200004D1FFE701208DF8070003E000208DF8DB
:100530000700FFE79DF8070002B080BD80B582B0DC
:1005400000208DF80700FFE79DF807000F2800F353
:10055000A480FFE79DF8071040F20000C2F20000FF
:10056000405C4009C007002800F08380FFE79DF849
:100570000710012000FA01F240F20041C4F201012B
:100580000868104308609DF8071040F20000C2F2AE
:100590000000405CC0F3C1000146009140B1FFE79C
:1005A000009801281CD0FFE70098022830D047E0CF
:1005B0009DF80710012000FA01F340F20842C4F24E
:1005C00001021168194311609DF8071000FA01F249
:1005D00040F20C41C4F201010868904308602FE02A
:1005E0009DF80710012000FA01F340F20842C4F21E
:1005F00001021168994311609DF8071000FA01F299
:1006000040F20C41C4F2010108681043086017E091
:100610009DF80710012000FA01F340F20842C4F2ED
:1006200001021168194311609DF8071000FA01F2E8
:1006300040F20C41C4F20101086810430860FFE772
:100640009DF8071040F20000C2F20000405C00F08C
:100650000700013060B1FFE79DF8070040F200019C
:10066000C2F20001095C01F0070100F019F8FFE790
:100670000CE09DF80710012000FA01F240F2004161
:10068000C4F20101086890430860FFE7FFE79DF8A6
:10069000070001308DF8070056E702B080BD00006A
:1006A00082B08DF806008DF8051000208DF804004A
:1006B0009DF806000F2805DCFFE79DF805000328DC
:1006C00005DBFFE79DF804008DF8070030E09DF89A
:1006D000060080088DF803009DF8060000F0030076
:1006E0008DF806009DF8060081000F2000FA01F346
:1006F0009DF803200821C4F2010151F8220098431B
:1007000041F822009DF805009DF80620920000FAAD
:1007100002F39DF8032051F82200184341F822000B
:1007200001208DF804009DF804008DF80700FFE714
:100730009DF8070002B0704784B08DF80E008DF868
:100740000D10029200208DF807009DF80D00102872
:1007500005DBFFE79DF807008DF80F0052E00298D7
:10076000002846D0FFE79DF80E000146009140B1F9
:10077000FFE70098012815D0FFE70098022822D053
:1007800032E040F60800C4F2010001689DF80D2037
:10079000012000FA02F31940D140029A11708DF83D
:1007A000070025E040F60840C4F2010001689DF80A
:1007B0000D20012000FA02F31940D140029A117075
:1007C0008DF8070014E041F20800C4F2010001684E
:1007D0009DF80D20012000FA02F31940D140029A41
:1007E00011708DF8070003E000208DF80700FFE787
:1007F00003E000208DF80700FFE79DF807008DF863
:100800000F00FFE79DF80F0004B0704782B08DF82D
:1008100007008DF806108DF8052000208DF80400E3
:100820009DF807000146009148B1FFE700980128B4
:100830004BD0FFE70098022800F08D80D1E09DF8B2
:10084000060007281BDCFFE79DF8060081000F204B
:1008500000FA01F240F60001C4F201010868904379
:1008600008609DF805009DF80620920000FA02F24B
:1008700008681043086001208DF8040024E09DF80A
:1008800006000F281BDCFFE79DF8060081000F2003
:1008900000FA01F240F60401C4F201010868904335
:1008A00008609DF805009DF80620920000FA02F20B
:1008B00008681043086001208DF8040003E0002060
:1008C0008DF80400FFE7FFE78FE09DF8060007289A
:1008D0001BDCFFE79DF8060081000F2000FA01F203
:1008E00040F60041C4F201010868904308609DF899
:1008F00005009DF80620920000FA02F208681043F5
:10090000086001208DF8040024E09DF806000F28FF
:100910001BDCFFE79DF8060081000F2000FA01F2C2
:1009200040F60441C4F201010868904308609DF854
:1009300005009DF80620920000FA02F208681043B4
:10094000086001208DF8040003E000208DF8040009
:10095000FFE7FFE749E09DF8060007281BDCFFE7FB
:100960009DF8060081000F2000FA01F241F200011B
:10097000C4F201010868904308609DF805009DF8E5
:100980000620920000FA02F2086810430860012075
:100990008DF8040024E09DF806000F281BDCFFE71B
:1009A0009DF8060081000F2000FA01F241F20401D7
:1009B000C4F201010868904308609DF805009DF8A5
:1009C0000620920000FA02F2086810430860012035
:1009D0008DF8040003E000208DF80400FFE7FFE736
:1009E00003E000208DF80400FFE79DF8040002B04A
:1009F0007047000086B08DF816008DF815108DF840
:100A0000142000208DF813009DF81500102805DB38
:100A1000FFE79DF813008DF817009DE09DF8160084
:100A20000146039140B1FFE70398012831D0FFE769
:100A3000039802285AD086E09DF8140001460291DE
:100A400098B1FFE7029801281ED1FFE79DF8151025
:100A5000012000FA01F340F60C02C4F20102116811
:100A6000194311608DF8130012E09DF81510012054
:100A700000FA01F340F60C02C4F201021168994336
:100A800011608DF8130003E000208DF81300FFE7DC
:100A90005DE09DF814000146019198B1FFE70198CF
:100AA00001281ED1FFE79DF81510012000FA01F37F
:100AB00040F60C42C4F201021168194311608DF82E
:100AC000130012E09DF81510012000FA01F340F622
:100AD0000C42C4F201021168994311608DF81300B1
:100AE00003E000208DF81300FFE730E09DF81400CC
:100AF0000146009198B1FFE7009801281ED1FFE759
:100B00009DF81510012000FA01F341F20C02C4F225
:100B100001021168194311608DF8130012E09DF86D
:100B20001510012000FA01F341F20C02C4F2010297
:100B30001168994311608DF8130003E000208DF8CF
:100B40001300FFE703E000208DF81300FFE79DF896
:100B500013008DF81700FFE79DF8170006B07047E7
:100B600081B08DF8030000208DF802009DF803008D
:100B70001F280DDCFFE79DF80310012000FA01F1AA
:100B80004EF28022CEF2000211608DF8020029E0C0
:100B90009DF803003F280FDCFFE79DF80300A0F15C
:100BA0002001012000FA01F14EF28422CEF200026F
:100BB00011608DF8020014E09DF803005F280FDC3F
:100BC000FFE79DF80300A0F14001012000FA01F1C8
:100BD0004EF28822CEF2000211608DF80200FFE78B
:100BE000FFE7FFE79DF8020001B0704781B08DF884
:100BF000030000208DF802009DF803001F280DDC83
:100C0000FFE79DF80310012000FA01F14EF2801277
:100C1000CEF2000211608DF802002DE09DF8030075
:100C20003F280FDCFFE79DF80300A0F12001012021
:100C300000FA01F14EF28412CEF2000211608DF83A
:100C4000020018E09DF803005F280FDCFFE79DF825
:100C50000300A0F14001012000FA01F14EF28812D8
:100C6000CEF2000211608DF8020003E000208DF842
:100C70000200FFE7FFE7FFE79DF8020001B07047C1
:100C800081B08DF8030000208DF802009DF803006C
:100C90001F280DDCFFE79DF80310012000FA01F189
:100CA0004EF20012CEF2000211608DF802002DE02B
:100CB0009DF803003F280FDCFFE79DF80300A0F13B
:100CC0002001012000FA01F14EF20412CEF20002DE
:100CD00011608DF8020018E09DF803005F280FDC1A
:100CE000FFE79DF80300A0F14001012000FA01F1A7
:100CF0004EF20812CEF2000211608DF8020003E0FD
:100D000000208DF80200FFE7FFE7FFE79DF80200F3
:100D100001B0704782B08DF807008DF806100020F2
:100D20008DF805009DF807000146009140B1FFE7EE
:100D30000098012813D0FFE7009802281ED02CE06D
:100D40009DF80610012000FA01F341F21402C4F2EA
:100D500002021168194311608DF8050021E09DF829
:100D60000610012000FA01F341F21C02C4F2020253
:100D70001168194311608DF8050012E09DF8061006
:100D8000012000FA01F341F21802C4F202021168D4
:100D9000194311608DF8050003E000208DF805006F
:100DA000FFE79DF8050002B07047000081B0002009
:100DB0008DF8030041F20001C4F20201086820F43A
:100DC00080200860086840F480300860FFE741F246
:100DD0000000C4F20200006800F400310020B0EB13
:100DE000514F01D1FFE7F2E741F20401C4F20201E1
:100DF000012008608DF803009DF8030001B07047E2
:100E000080B500F001F880BD84B00020039002900E
:100E100041F20001C4F20201086840F48030086029
:100E2000FFE741F20000C4F20200006800F4003065
:100E30000290039801300390FFE70299002001908F
:100E400039B9FFE70398B0F5A06018BF0120019001
:100E5000FFE70198C0070028E3D1FFE741F2000057
:100E6000C4F2020000688003002803D5FFE70120D8
:100E7000029002E000200290FFE70298012851D181
:100E8000FFE742F20001C4F20201086840F01000DE
:100E90000860086820F007000860086840F0020059
:100EA000086041F20401C4F2020100910868086080
:100EB00008680860086840F480600860086820F4EA
:100EC0007C100860086840F4E810086041F20001F6
:100ED000C4F20201086840F080700860FFE741F248
:100EE0000000C4F2020000688001002801D4FFE77E
:100EF000F5E741F20401C4F20201086820F00300A2
:100F00000860086840F002000860FFE741F2040052
:100F1000C4F20200006800F00C00082801D0FFE7CE
:100F2000F4E700E0FFE704B07047000070470000FE
:100F300080B541F20002C4F20202106840F00100E4
:100F4000106041F20401C4F2020108680023CFF6E8
:100F5000FF031840086010684FF6FF73CFF6F66382
:100F600018401060106820F480201060086820F499
:100F7000FE00086041F20801C4F202014FF41F00B4
:100F80000860FFF73DFF4EF60851CEF200014FF02A
:100F90000060086080BD000040F27001C2F20001F4
:100FA00008680130086040F61001C4F200010868CA
:100FB00020F001000860704780B58EB000200B90D3
:100FC0000D90FFF7F3FE022106910846FFF7A2FEFF
:100FD000069901200890FFF79DFE0B9803210C91C4
:100FE0000822FFF713FC069A0B9804210A91FFF7D9
:100FF0000DFC069A0B9805210991FFF707FC069A4C
:101000000B9806210791FFF701FC0799089A0B98A6
:10101000FFF7F0FC09990B9A1046FFF7EBFC0A99D1
:101020000B9A1046FFF7E6FC0920FFF729FEFFF7B1
:1010300085FA0B990C98FFF731FA0C98FFF70CFA28
:101040001E20FFF71DFEFFE70020049006210091FF
:1010500001220292FFF7CEFC049A0521019110466D
:10106000FFF7C8FC049A042103911046FFF7C2FC65
:10107000AA200590FFF7E6F80099049A1046FFF7BA
:10108000B9FC0199029A0498FFF7B4FC0399049AF9
:101090001046FFF7AFFC0598FFF7D4F80099049AC3
:1010A0001046FFF7A7FC0199049A1046FFF7A2FC2F
:1010B000029A03990498FFF79DFC0598FFF7C2F880
:1010C0000099049A1046FFF795FC0199029A04983A
:1010D000FFF790FC0399049A1046FFF78BFC0598E4
:1010E000FFF7B0F8B0E7000008110008000000208A
:1010F000100000002801000818110008100000204E
:101100006806000044010008170F1730171717175B
:0811100017171717171717171F
:040000050800018965
:00000001FF
